:020000040800F2
:10000000684500205D0200088F1E0008291D0008B9
:100010008D1E00082F08000895240008000000002D
:100020000000000000000000000000009D0100082A
:100030002509000800000000F9010008052000085B
:1000400077020008770200087702000877020008AC
:10005000770200087702000877020008770200089C
:10006000770200087702000877020008770200088C
:10007000770200087702000877020008770200087C
:10008000770200087702000877020008770200086C
:10009000310800087702000877020008770200089C
:1000A00077020008E12000087702000877020008C4
:1000B000770200087702000877020008770200083C
:1000C000770200087702000877020008770200082C
:1000D0007702000869240008770200087702000808
:1000E000770200087702000877020008770200080C
:1000F00077020008770200087702000877020008FC
:1001000077020008770200087702000877020008EB
:1001100077020008770200087702000877020008DB
:1001200077020008770200087702000877020008CB
:1001300077020008770200087702000877020008BB
:1001400077020008770200087702000877020008AB
:10015000770200087702000877020008770200089B
:10016000770200087702000877020008770200088B
:1001700077020008770200087702000800000000FC
:100180007702000877020008DFF80CD000F0CEFA02
:1001900000480047C12D0008684500202C4B196815
:1001A0000868B0E8F04F80F30988BFF36F8F4FF015
:1001B000000080F3118870470000000008480068C4
:1001C000006880F308884FF0000080F3148862B65E
:1001D00061B6BFF34F8FBFF36F8F00DF00BF00BF6B
:1001E00008ED00E0DFF80C00016841F470010160E7
:1001F000704700BF88ED00E0EFF30980BFF36F8F19
:10020000134B1A681EF0100F08BF20ED108A20E96A
:10021000F04F106009B44FF0500080F31188BFF325
:100220004F8FBFF36F8F03F0A3FA4FF0000080F3FE
:10023000118809BC19680868B0E8F04F1EF0100F6B
:1002400008BFB0EC108A80F30988BFF36F8F704746
:1002500028000020EFF30580704700000648804723
:1002600006480047FEE7FEE7FEE7FEE7FEE7FEE79B
:10027000FEE7FEE7FEE7FEE7C5200008890100086B
:100280002DE9F05F0546002092469B4688460646CB
:10029000814640241BE0284641464746224600F05E
:1002A0007CF853465A46C01A914110D3114618465D
:1002B000224600F063F82D1A67EB01084F462246EC
:1002C0000120002100F05AF817EB00094E41201ED2
:1002D000A4F10104DFDC484631462A464346BDE826
:1002E000F09F40EA01039B0703D009E008C9121FF1
:1002F00008C0042AFAD203E011F8013B00F8013BE0
:10030000521EF9D27047D2B201E000F8012B491E0B
:10031000FBD270470022F6E710B513460A460446A2
:100320001946FFF7F0FF204610BD00F0004230F004
:1003300000400AD0C10D01F56071C0F3160042EA19
:100340000151C20840071143704700200146704721
:1003500030B50B46014600202022012409E021FA95
:1003600002F59D4205D303FA02F5491B04FA02F592
:100370002844151EA2F10102F1DC30BD202A04DB65
:10038000203A00FA02F1002070479140C2F12003A8
:1003900020FA03F3194390407047202A04DB203AE7
:1003A00021FA02F00021704721FA02F3D040C2F195
:1003B000200291400843194670472DE9FE4F8046C0
:1003C00081EA0300C00F0C46009021F0004123F0A9
:1003D0000045B8EB0200A94105D2404621469046AF
:1003E0001C460B46024623F00040104347D0270D21
:1003F000C7F30A00C3F30A510290401A0190402843
:100400006BDAC3F3130040F4801B0098924620B1CE
:100410000023D2EB030A63EB0B0B01985946C0F1A2
:1004200040025046FFF7AAFF06460D465046594681
:10043000019A00F08DF910EB08006141002487EA71
:10044000115284EAE7731A4340D0009A62B3019ACA
:10045000012A4FEA075215DC001B61EB02014FF045
:10046000004202EA0752CDE90042001C41F580112A
:1004700032462B4600F08DF903B0BDE8F08F4046C0
:100480002146F9E7001B61EB0201001C41F58013D6
:1004900000185B412018A2F5001747EB030140EA62
:1004A000D570B6196D4111E06D084FEA360645EA80
:1004B000C0754FEA0752001B61EB0201001C41F5B9
:1004C000801149084FEA30000019514132462B464D
:1004D00003B0BDE8F04F00F04DB900980122400094
:1004E0000023D0EB020263EBE073009821464FEA51
:1004F000E074B8EB000061EB0401E9E783F000432E
:100500005BE781F0004158E72DE9FE4F81EA0304E3
:1005100004F0004421F0004100944FF0000B23F060
:10052000004350EA01045ED052EA03045BD0C3F3F7
:100530000A54C1F30A552C44A4F2F3340194A0FBED
:100540000254C1F3130141F48011C3F3130343F4C4
:10055000801301FB024400FB034E840A970A44EA1D
:10056000815447EA8357A4FB076802958D0A05FB6F
:1005700007854FEA932C04FB0C542705029D4FEA94
:10058000065847EA1637B5EB08056EEB070C870EE1
:10059000920E47EA811742EA8312A7FB0201B6EBEB
:1005A0000B0164EB00042B0D43EA0C335E1844EBA3
:1005B0001C50DA465146E7FB0201C5F313044FEA2B
:1005C0000B3343EA14534FEA0432019C43EA060317
:1005D000A4F10C040294009CCDE900B400F0D9F819
:1005E00003B0BDE8F08F00200146F9E72DE9F04D9A
:1005F00081EA030404F0004B21F0004514464FF05B
:10060000000A23F0004150EA050220D054EA01021A
:100610001DD0C5F30A570246C5F31303C1F31300F7
:10062000C1F30A5640F4801543F48013A7EB060883
:10063000101BD64608F2FD3873EB050002D308F113
:10064000010801E092185B41B8F1000F03DA0020C5
:100650000146BDE8F08D00204FF480110646844627
:100660000EE0171B73EB050705D3121B63EB0503A5
:1006700006434CEA010C49084FEA300092185B41EE
:1006800050EA0107EDD152EA030012D082EA0400D9
:1006900083EA0501084305D0101BAB4106D20122B5
:1006A000002306E000224FF0004302E06FF0010259
:1006B00053101AEB06004CEB085110EB0A0041EB0B
:1006C0000B01BDE8F04D00F055B8C1F30A52C1F37B
:1006D000130140F2FF3341F480119A4202DA002004
:1006E0000146704740F233439A42A2F2334202DCA1
:1006F0005242FFF752BEFFF741BE000030B5041E64
:1007000071F1000404DB4FF00044404264EB01014E
:10071000141E73F1000405DB1C464FF000435242E7
:1007200063EB0403994208BF904230BD064C074D6D
:1007300006E0E06840F0010394E8070098471034B1
:10074000AC42F6D3FFF724FD90400008B04000080B
:10075000202A06DBCB17203A41FA02F043EAE07385
:1007600006E041FA02F3D040C2F120029140084372
:100770001946704710B5141E73F1000408DA401CC6
:1007800041F1000192185B411A4301D120F00100B0
:1007900010BD2DE9F04D92469B4611B1B1FA81F2A0
:1007A00002E0B0FA80F220329046FFF7E7FD0446FF
:1007B0000F4640EA0A0041EA0B0153465A460843F5
:1007C00013D0114653EA010019D0C8F14002504637
:1007D000FFF7E3FD05460E46504659464246FFF7F1
:1007E000CDFD084305D0012004E020463946BDE890
:1007F000F08D0020054346EAE0762C4337430A9803
:100800006305E40AA0EB08000022FD0A44EA47540D
:100810000A3002D500200146E9E7010510196941B7
:10082000DDE9084500196941BDE8F04DA2E7FEE7A2
:10083000014800F053B90000DC020020B2B0C8212A
:100840006846FFF767FD184C184F4FF400764FF4D9
:10085000FA754FF47A7800223146204600F042FCC7
:10086000284602F03FFB01223146204600F03AFCC8
:10087000284602F037FB0A226946F86803F038F987
:100880000128E8D19DF800000028E4D008A001F07C
:1008900003FE4346C82269460D4801F0E7F90DA062
:1008A00001F0FAFDD7E7000000140240000000202C
:1008B0000D0AB4D3CFFBCFA2B6D3C1D0D6D0BDD30F
:1008C000CAD5B5BDB5C4CFFBCFA2CEAA3A0D0A009A
:1008D000CC0300200D0A00000E4D0F4C0F4E0027D8
:1008E0004FF47A782088000405D528680168C94348
:1008F0004906FBD4278000230A220949F06803F047
:1009000047F8C8210648FFF705FD404602F0EAFA1D
:10091000E8E70000CC0300201200002000000020C7
:1009200004030020704772B6FEE7F0B590F820503F
:100930000468A468012D05D0022D03D0416A41F45A
:10094000802153E014F0406F01D1E5004BD5C4F392
:100950000164022C03D9416A41F4000146E00125FB
:10096000A5401D608D684FF4C0739DB1CE683543BE
:100970004E6845EAC605066803EB0417F5514FF4C7
:10098000C275076805EB04150E697E51097D0129C2
:1009900005D009E00E88CD6845EA4655EBE70168C9
:1009A0004E5946F480764E511179D2F805504FF4E5
:1009B000C67641EA0525016806EB04168D511178CB
:1009C000D2F801204FF4C47541EA0221026805EB18
:1009D00004155151006803EB0411425842F0010222
:1009E00042500020F0BD416A41F4001141620120F3
:1009F000F0BD704730B590F82040012C05D0022C96
:100A000003D0416A41F480215DE00468002955D09B
:100A10002469A40754D04FF4D874056804EB01147A
:100A20002D5915F00405956005682D594ED0ED0837
:100A3000556005682C5904F00204D4604FF4DA7450
:100A4000056804EB01142D5905F00F0515610568C3
:100A50002D59C5F30725956105682C59240C54615F
:100A60004FF4DC72046802EB0112A4581C70046895
:100A7000A458240A5C700468A458240C9C70046870
:100A8000A258120EDA704FF4DE72046802EB011203
:100A9000A4581C710468A458240A5C710468A45802
:100AA000240C9C710468A258120EDA71006881B19E
:100AB000016941F020010161002030BDE468A8E730
:100AC000416A41F400114162012030BD6D0D156095
:100AD000AFE7C16841F02001C160EDE72DE9F05FAB
:100AE0000546006800244669D0F804908768D0F86D
:100AF0000CB0D0F810A0D0F81880F10748D0F90752
:100B000014D001218160B80703D5284600F0E3F92D
:100B10000CE0780702D54FF4006407E0380702D5EF
:100B20004FF4805402E0284600F0D4F9F80516D5B9
:100B300029684FF480708860B80503D5284600F016
:100B4000CCF90CE0780502D544F4005407E03805F0
:100B500002D544F4804402E0284600F0BDF9F803D1
:100B600016D529684FF480308860B80303D528462D
:100B700000F0B5F90CE0780302D544F4004407E036
:100B8000380302D544F4803402E0284600F0A6F988
:100B9000300707D55FEACB6004D52968102044F4FC
:100BA0000074C86070074FF0080707D55FEA0B7044
:100BB00004D52868C760284600F05AF9B00706D562
:100BC0002868C068800702D0284600F052F97006F5
:100BD00007D55FEACA6004D52968102044F4806410
:100BE0000861B00607D55FEA0A7004D52868076176
:100BF000284600F03FF9F00606D52868006980070E
:100C000002D0284600F037F9B00308D55FEAC96082
:100C100005D5296810204860284600F02DF9F0031A
:100C200007D55FEA097004D528684760284600F0B8
:100C300057F9300446D55FEA497040D5F00504D530
:100C40005FEAC87001D044F00104B00504D55FEA42
:100C5000887001D544F00204700504D55FEA48703D
:100C600001D544F00404300529D518F0700F26D0C2
:100C700008F07000402815D006DC102809D0202884
:100C80000AD0302816D10AE050280ED0602811D1A1
:100C90000EE044F008040DE044F010040AE044F0D3
:100CA000200407E044F0400404E044F0800401E044
:100CB00044F480742868816921F070018161296899
:100CC00004204860002C05D0686A204368622846EA
:100CD000FFF78FFEBDE8F09F70B5040003D094F8D5
:100CE000200010B104E0012070BD204600F082F821
:100CF0002068016821F00201016000F0F9F9054661
:100D0000052604E000F0F4F9401B0A2811D82068F9
:100D100040688007F6D42068016841F00101016055
:100D200000F0E6F905460BE000F0E2F9401B0A2866
:100D300006D9606A40F40030606284F82060D2E72F
:100D400020684068C007EFD0207E01282068016835
:100D50003DD021F080010160607E0128206801689B
:100D600038D021F040010160A07E01282068016890
:100D700033D021F020010160E07E01282068016865
:100D80002ED041F010010160207F01282068016809
:100D900029D021F008010160607F012820680168E6
:100DA00024D021F004010160D4E902010843D4E910
:100DB0000412114308436168491E08432168C86151
:100DC00000206062012084F82000002070BD41F006
:100DD0008001C0E741F04001C5E741F02001CAE7CA
:100DE00021F01001CFE741F00801D4E741F0040100
:100DF000D9E7000010B586B0044614216846FFF715
:100E000089FA18492068884229D1174800210268C8
:100E100042F000720260006800F000700590124815
:100E20001038026842F001020260006800F0010020
:100E300005904FF4C05000900220CDE9010103203D
:100E40000390092004906946084800F06FF80022DA
:100E50000521142000F0D8F9142000F0C7F906B0DD
:100E600010BD000000640040403802400000024015
:100E700070477047704770477047000070B5044670
:100E800090F82000012804D0606A40F400206062DD
:100E900018E0022084F820002068016821F0010198
:100EA000016000F025F905460EE000BF00F020F9D2
:100EB000401B0A2808D9606A40F4003060620520AF
:100EC00084F82000012070BD20684068C007EDD183
:100ED000606270BD704770477047704770477047D9
:100EE000704790F83510022903D080214165012018
:100EF0007047052180F835100068016821F0010174
:100F0000016000207047000070B5044600F0F0F862
:100F10000546601C02D004480078044400F0E8F85C
:100F2000401BA042FAD370BD180000202DE9F84FF5
:100F300000224FF0010803254FF00F0E0B6808FA4E
:100F400002F42340A3426ED14E68012E05D0022E3A
:100F500003D0112E01D0122E12D186684FEA420C16
:100F600005FA0CF7BE43CF6807FA0CF737438760E2
:100F70004668A6430C79C4F300149440344344609B
:100F8000C668570005FA07FC8C6826EA0C06BC40C8
:100F90003443C4604C68022C01D0122C13D1D40805
:100FA00000EB8404A346D4F8209054074FEAD46A97
:100FB0000EFA0AF629EA06090E6906FA0AF646EA60
:100FC0000906CBF8206006680C7926EA0C0604F0C6
:100FD0000304BC40344304604C68E40065D5364CDF
:100FE000266846F480462660246822F0030604F44E
:100FF00080440094314C3444A446D4F80848960701
:10100000370F0EFA07F6B4432D4EB04201D1002639
:1010100024E02C4EB04201D101261FE02A4EB042FE
:1010200002D102261AE040E0284EB04201D1032648
:1010300014E0274EB04201D104260FE0254EB04205
:1010400001D105260AE0244EB04201D1062605E072
:10105000224EB04201D1072600E00826BE402643BA
:10106000CCF808681E4E34684F689C43FF0300D5D7
:101070001C4334601A4C241D26684F689E43BF03EE
:1010800000D51E432660164E083634684F689C43D0
:10109000FF0200D51C433460114E0C3634684F6893
:1010A0009C43BF0200D51C433460521C102AFFF43D
:1010B00045AFBDE8F88F00004438024000300140E1
:1010C000000002400004024000080240000C024000
:1010D000001002400014024000180240001C0240B0
:1010E000003C01400AB1816170470904FBE7000040
:1010F000014880687047000018000020024881689D
:101100000278114481607047180000200B4810B528
:10111000016841F400710160016841F4806101607F
:10112000016841F480710160032000F08DF8002017
:1011300000F006F800F03EF8002010BD003C024030
:1011400010B5014688B00022192000F05DF8192082
:1011500000F04CF813480024016841F001010160DF
:10116000006805A900F001000690684600F018F933
:1011700000F046F90C494000B0FBF1F10C480B4A75
:10118000491E026040F2E732C0E90324C0E90114BD
:1011900000F026FB10B1012008B010BD044800F09B
:1011A0003BFBF9E74438024040420F000000014099
:1011B0000C0400200C4882B0016841F480410160B9
:1011C000006800F4804000900748001F016841F06B
:1011D000805101600068002200F0805000900F21D3
:1011E000901E02B000F010B844380240002809DB1D
:1011F00000F01F02012191404009800000F1E02031
:10120000C0F8001170470000F0B40E4B1B680C468C
:10121000C3F30223C3F10705042D00D90425191DCA
:10122000072901D2002300E0DB1E012606FA05F1A2
:10123000491E214099409E40761E16403143F0BC25
:1012400001F03AB90CED00E0064900F00702086829
:101250004FF6FF03184040EA0220034A104308609B
:10126000704700000CED00E00000FA052DE9F047A2
:101270000E46050065D0DFF81481D8F80000F7B2FB
:1012800000F00F00B04207D288F80070D8F80000D4
:1012900000F00F00B04254D128683D4C810712D5B0
:1012A000400703D5206840F4E0502060287800070C
:1012B00003D5206840F4604020602068A96820F0D1
:1012C000F000084320602878C0072DD030496868B6
:1012D0000839012812D0022813D0032811D0096838
:1012E000890700292DDA216821F0030101432160DB
:1012F000FFF7FEFE814641F2883A0EE00968890355
:10130000EFE709688901ECE7FFF7F2FEA0EB0901BE
:10131000514502D90320BDE8F0872068696800F0D4
:101320000C00B0EB810FEFD1D8F80010404601F06F
:101330000F01B14207D90770006800F00F00B042FA
:1013400001D00120E7E72878400705D52068E96843
:1013500020F4E050084320602878000706D5206874
:10136000296920F4604040EAC100206000F058F88C
:101370002168084AC1F30311515CC840064908605E
:1013800006480068FFF7DCFE0020C4E7003C02408E
:101390000838024054400008240000201C000020AF
:1013A0000F2202600C4A136803F0030343601368C2
:1013B00003F0F0038360136803F4E053C360126822
:1013C0004FF4E05303EAD20202610448006800F0DF
:1013D0000F0008607047000008380240003C0240DF
:1013E0000448054900680968044AC1F38221515C38
:1013F000C8407047240000200838024064400008BC
:101400000448054900680968044AC1F34231515C47
:10141000C84070472400002008380240644000089B
:10142000154810B5006810F00C02144813D0411094
:10143000042A0FD0082A0ED10F4C241F22682368DB
:1014400002F03F025B0207D52068C0F38810A0FBC2
:10145000010106E0084610BD2168C1F38811A1FB17
:1014600000010023FEF70CFF2168C1F30141491C74
:101470004900B0FBF1F010BD083802400024F40030
:101480002DE9F84F04006ED02078DFF83C93C007B8
:10149000A9F104054AD009F104000168C1F38101F2
:1014A000012908D00068C0F3810002280AD1D9F8C8
:1014B0000000400206D52868800337D56068002800
:1014C000E1D033E06068B0F5803F10D0B0F5A02FD8
:1014D000286810D020F480302860286820F480200C
:1014E00028606068A8B1FFF703FE06460DE0286893
:1014F00040F48030F4E740F480202860F7E700BF34
:10150000FFF7F6FD801B642873D828688003F7D5A1
:101510000CE0FFF7EDFD064605E000BFFFF7E8FD34
:10152000801B6428F0D828688003F7D42078DFF87F
:101530009C8280074FF0000A3ED5A348001D016839
:1015400011F00C0F08D00068C0F3810002280BD105
:10155000D9F80000400207D42868800716D5E06853
:10156000012800D112E02BE1E068B8B10120C8F8F1
:101570000000FFF7BDFD064605E000BFFFF7B8FD20
:10158000801B0228C0D828688007F7D52868216901
:1015900020F0F80040EAC10028600DE0C8F800A083
:1015A000FFF7A6FD064604E0FFF7A2FD801B022818
:1015B0001FD828688007F7D42078000722D5824EEC
:1015C00083486169703671B101210160FFF790FDB8
:1015D000074604E0FFF78CFDC01B022809D83068DD
:1015E0008007F7D50EE0C0F800A0FFF781FD0746A1
:1015F00005E082E0FFF77CFDC01B02287DD8306843
:101600008007F7D42078400768D5DFF8BCB1002701
:101610000BF13C0BDBF80000C0000BD4DBF8001032
:1016200041F08051CBF80010DBF80000012700F0FA
:1016300080500090674E3068C00510D4306840F488
:1016400080703060FFF754FD009005E0FFF750FD1B
:101650000099401A022850D83068C005F6D55A4E75
:10166000A0686C3601280FD00528306810D020F013
:1016700001003060306820F004003060A068B8B12C
:10168000FFF736FD00900FE0306840F00100F4E70E
:1016900040F004003060F7E7FFF72AFD0099411A97
:1016A00041F28830814266D830688007F4D50EE078
:1016B000FFF71EFD009007E0FFF71AFD0099411AA1
:1016C00041F28830814256D830688007F4D42FB177
:1016D000DBF8001021F08051CBF80010A069C8B3EE
:1016E0003949091D0968C1F3810102294AD002283C
:1016F000504607D0C8F8600000E03CE0FFF7F8FC77
:1017000004463BE04746C8F86000FFF7F1FC064698
:1017100005E000BFFFF7ECFC801B02282BD82868EF
:101720008001F7D4D4E907010843A16A2A4A49088D
:1017300002EB0141626A41EA8211084394F82C10DD
:1017400040EA0161C9F8001001203866FFF7D0FCBB
:10175000044606E036E000BFFFF7CAFC001B022883
:1017600009D828688001F7D52CE000BFFFF7C0FC3E
:10177000001B022802D90320BDE8F88F28688001E9
:10178000F4D41FE00128F7D0D9F80000E26900F492
:101790008001914214D1226A00F03F0191420FD1A1
:1017A00047F6C071626A0140914209D1A26A00F411
:1017B0004031914204D1E16A00F07060884201D06A
:1017C0000120D9E70020D7E7043802400000474253
:1017D000800E4742007000400000FFFF70477047D6
:1017E00010B5040003D094F83D0010B107E00120CB
:1017F00010BD002084F83C00204600F00CF80220C8
:1018000084F83D00211D206800F070FC012084F860
:101810003D00002010BD70470168CA6842F0010217
:10182000CA600068816801F00701062903D00168D9
:1018300041F00101016000207047704770B5044617
:10184000006801694FF00005C943890715D4C168D4
:10185000C943890711D4E91E01610120207720685E
:1018600080698007204602D0FFF7E7FF04E000F020
:1018700098F8204600F096F8257720680169C9435A
:10188000490717D4C168C943490713D46FF004014D
:101890000161022020772068806910F4407F204693
:1018A00002D0FFF7CAFF04E000F07BF8204600F00A
:1018B00079F8257720680169C943090716D4C168FA
:1018C000C943090712D46FF0080101610420207791
:1018D0002068C0698007204602D0FFF7AEFF04E011
:1018E00000F05FF8204600F05DF825772068016978
:1018F000C943C90617D4C168C943C90613D46FF0D8
:1019000010010161082020772068C06910F4407F31
:10191000204602D0FFF791FF04E000F042F8204695
:1019200000F040F8257720680169C943C90708D14C
:10193000C168C943C90704D1891E0161204600F06E
:1019400033F820680169C943090609D4C168C9434D
:10195000090605D46FF0800101612046FFF73EFFC4
:1019600020680169C943490609D4C168C9434906C9
:1019700005D46FF040010161204600F01FF8206897
:101980000169C94389060BD4C168C943890607D4D4
:101990006FF0200101612046BDE87040FFF71FBFD6
:1019A00070BD70477047000000680349884201D14C
:1019B000FFF7A4BB7047000000000140704770476C
:1019C00010F8391F407808437047000070B502686E
:1019D00004461068D168536910F00F0F52D003F01D
:1019E000010501F490762E435FD0C20705D0CA05E9
:1019F00003D5E26B42F00102E263420705D5DA0744
:101A000003D0E26B42F00202E263820705D5DA07F7
:101A100003D0E26B42F00402E263020707D501F053
:101A200020022A4303D0E26B42F00802E263E26B39
:101A3000002A33D0800604D5880602D5204600F05F
:101A4000CFFB20684069E16BC0F38010090700D428
:101A500028B3204600F0B6FB2068416949061AD534
:101A6000416921F040014161606BA0B11B490165F2
:101A7000606BFFF736FA002810D0606B016DBDE88F
:101A800070400847830610D58B060ED52046BDE86A
:101A9000704000F0A5BB2046FFF791FF70BD2046C7
:101AA000FFF78DFF0020E06370BD030606D50B062F
:101AB00004D52046BDE8704000F072BC4006F3D566
:101AC0004806F1D5D168204621F04001D16020219F
:101AD00084F8391000F027F970BD0000B521000826
:101AE00070B5040004D094F83900002510B106E068
:101AF000012070BD84F83850204600F023F82420DF
:101B000084F839002068C16821F40051C160204682
:101B100000F0B2FB2068016921F490410161206866
:101B2000416921F02A0141612068C16841F40051F6
:101B3000C160E563202084F8390084F83A00002071
:101B400070BD000010B586B0044614216846FEF74B
:101B5000E1FB18492068884229D11748016841F003
:101B600010010160006800F0100005901248143860
:101B7000016841F0010101600068694600F0010060
:101B800005904FF4C0600090022001900120029067
:101B900003200390072004900848FFF7C7F90022AC
:101BA00005212520FFF730FB2520FFF71FFB06B09E
:101BB00010BD000000100140443802400000024007
:101BC00090F83A30202B22D1F9B1F2B190F83830A8
:101BD000012B1CD081628285C2850021C163222233
:101BE00080F83A2080F838100168CA6842F48072A0
:101BF000CA6001684A6942F001024A610068C1682E
:101C000041F02001C1600020704701207047022090
:101C10007047000030B50068114988420CD1114866
:101C200041880A0408D402464C0412784FF000039D
:101C300006D50A2A01D0438030BD41F400410DE0B1
:101C40000D2A09D0C1F30D04074D491C89B22A554C
:101C50004180C729EFD830BD41F48041418030BD7B
:101C60000010014010000020040300202DE9F8437B
:101C7000044690F839001F4616460D46202850D1DC
:101C8000B5B1AEB194F8380001284AD0012084F8EB
:101C900038004FF00008C4F83C80212084F8390057
:101CA000FFF726FAA6848146E68484F8388026E089
:101CB0000120BDE8F883E08C401EE084A0684B461C
:101CC000B0F5805F4FF000024FF080012046009792
:101CD00003D000F096FBE8B90DE000F092FBC8B924
:101CE00028882168C0F308004860206908B16D1C8D
:101CF00005E0AD1C03E0216815F8010B4860E08C9D
:101D00000028D8D14B46002240212046009700F001
:101D100078FB08B10320CCE7202084F839000020AC
:101D2000C7E70220C5E77047FEE70000104810B57E
:101D30000E490160062141604FF080418160002121
:101D40004FF4C022C0E903124FF4A00242610176B1
:101D500041768176C17601774177FEF7BDFF002895
:101D600003D0BDE81040FEF7DEBD10BD00640040AA
:101D7000DC02002010B596B000220921022001F0FB
:101D80009FFD124C1C221249E0606846FEF7A9FA3A
:101D90000021684601F0B2F80D4920601C221C3178
:101DA00007A8FEF79EFA002107A801F0A7F8084946
:101DB00060601C2238310EA8FEF793FA00210EA8AD
:101DC00001F09CF8A06016B010BD000000000020DB
:101DD0000040000870B586B014216846FEF79AFAF4
:101DE00016480024016841F020010160016801F0FB
:101DF00020010591016841F080010160016801F056
:101E000080010591016841F00101016000680C4EFC
:101E100000F001004FF4007505900022294630467D
:101E2000FFF760F901200095CDE9010469463046CD
:101E30000394FFF77BF806B070BD00003038024015
:101E4000001402400F4810B50D4901604FF4E13114
:101E50004160002181600C22C160C0E904128161EF
:101E6000C161FFF73DFE08B1FEF75DFD0548FFF7D4
:101E700037FEBDE81040012203490248FFF7A0BE2B
:101E800000100140CC03002010000020FEE7FEE718
:101E90003348014680ED000AD0ED011A70EE610A68
:101EA00030EE610AC0ED020A91ED071A90ED092AA1
:101EB00031EE001ABDEEC00AF4EEC21AF1EE10FACD
:101EC0000DDD10EE101A002900DA4942C82923DC82
:101ED000F5EEC00A0121F1EE10FA1FD320E090EDDB
:101EE0000A2AF4EEC21AF1EE10FA0DD210EE101A10
:101EF000002900DA4942C8290EDCF5EEC00A0121AA
:101F0000F1EE10FA0ADC0BE010EE102A0121002A93
:101F100000DA5242C82A01DD002101E080ED071AF3
:101F200001EE101A90ED040AD0ED051AB8EEC11AB0
:101F300020EE200A21EE811AD0ED071A01EE210AC7
:101F400090ED031AD0ED061A30EEC11A01EE810AA7
:101F500080ED080AC0ED030A80ED010A7047000019
:101F60004C04002011489FED100ADFED110A80EDAE
:101F7000000A80ED010A80ED020A80ED030A80ED7F
:101F8000080A80ED070A9FED0B0AC0ED040A80EDF8
:101F9000050A9FED090AC0ED060A80ED090A9FEDCA
:101FA000070A80ED0A0A7047000000004C04002078
:101FB000CDCC4C3ECDCCCC3D0000C843000048C346
:101FC0002DED028BFFF7CEFF9FED0A8AB0EE480A97
:101FD000FFF75EFF10EE100AFEF7A7F941EC100BB9
:101FE00005A053EC102B00F057FAC82000F07AFF40
:101FF000ECE70000000016437069643A2025660D86
:102000000A00000010B5502080F31188BFF34F8FF5
:10201000BFF36F8F01F0A8FE18B104494FF0805054
:102020000860002080F3118810BD000004ED00E07E
:1020300030B593B030216846FEF76CF914210CA836
:10204000FEF768F91D480025016841F080510160E4
:10205000006800F0805011901948016841F48041F7
:1020600001600068022400F480401190012000907B
:10207000000401908001CDE9064008AA0420A821AF
:1020800082E813000B906846FFF7FAF908B172B6C0
:10209000FEE70CA90F2081E831004FF4A0500F900B
:1020A0004FF48050109005210CA8FFF7DFF80028AE
:1020B00001D072B6FEE713B030BD000040380240D8
:1020C000007000400548016841F470010160034957
:1020D0004FF00060803908607047000088ED00E034
:1020E0000148FFF7ABBB00000C040020F0B502680C
:1020F000254C264D264E274F274B4FF0804CA042B3
:1021000009D0604507D0A84205D0B04203D0B842FC
:1021100001D0984204D122F0700E4A6842EA0E02C1
:10212000A0421BD0604519D0A84217D0B04215D0AC
:10213000B84213D0984211D0184DA8420ED0184D75
:10214000A8420BD0174DA84208D0174DA84205D081
:10215000164DA84202D0164DA84203D122F4407574
:10216000CA682A434D6922F080022A4302608A68C5
:10217000C2620A688262A04201D0984201D1096914
:10218000016301214161F0BD0000014000040040F5
:1021900000080040000C00400004014000400140E5
:1021A000004401400048014000180040001C00406D
:1021B0000020004010B5806B0021C185C184FFF76D
:1021C000FEFB10BD0168CA6822F49072CA60016803
:1021D0004A6922F001024A61202180F83A107047D2
:1021E00010B590F83A10222901D0022010BD816864
:1021F000B1F5805F11D00169002901681FD04968DD
:1022000001F07F03816A4A1C82620B70C18D491EF6
:102210000904090CC18518D02BE00269816A002AE3
:102220000268526805D0D2B20A80816A491C816274
:10223000ECE7C2F308020A80816A891CF7E74A6862
:10224000816A4B1C83620A70E0E70168CA6822F069
:102250002002CA600168CA6822F48072CA600168FC
:102260004A6922F001024A61202180F83A10FFF702
:10227000D1FC002010BD00002DE9F04104460068AB
:102280000169E26821F44051114301612169A068AC
:10229000E26908436169114308432168CA6849F249
:1022A0000C639A430243CA6020684169A26921F421
:1022B000407111434161E069192764253226B0F568
:1022C000004F354A354920684FF0000806D0884253
:1022D00001D0904236D1FFF793F835E0884201D023
:1022E000904202D1FFF78CF801E0FFF779F86168BE
:1022F0004A18A0FB070148EB0803FDF7C1FF0146A0
:10230000B0FBF5F00201B1FBF5F06FF01803584394
:1023100001EB800006EBC000B0FBF5F000F0F80028
:1023200002EB4002B1FBF5F0584301EB800006EBF5
:10233000C000B0FBF5F000F0070021681044886091
:10234000BDE8F081FFF74CF861688B0F8A00A0FBB5
:102350000701FDF795FF0146B0FBF5F06FF018029D
:10236000504301EB800006EB0010B0FBF5F000F0ED
:10237000F002B1FBF5F002EB0012B1FBF5F06FF0EB
:102380001803584301EB800006EB0010B0FBF5F09A
:1023900000F00F00D1E700000014014000100140E0
:1023A00090F83910212901D0022070478168B1F5D9
:1023B000805F016A0BD04A1C026202680978516092
:1023C000C18C491E0904090CC1840ED017E009888C
:1023D0000268C1F30801516001690029016A02D055
:1023E000491C0162ECE7891CFBE70168CA6822F01E
:1023F0008002CA600068C16841F04001C1600020ED
:1024000070472DE9F041984617460E460446069D52
:102410001DE0681C1BD02DB1FEF76AFEA0EB080082
:10242000A84214D92068C16821F4D071C160206825
:10243000416921F001014161202084F8390084F8CC
:102440003A00002084F838000320BDE8F0812068BD
:10245000006836EA000004D00020B842D9D000203D
:10246000F3E70120F9E7000010B50848FFF7AEFADE
:102470000648FFF7A5FA2028FAD1012204490348AB
:10248000FFF79EFB0028F8D110BD0000CC03002010
:1024900010000020FEE700000FB4054B10B503A9A3
:1024A000044A029800F0EAF810BC5DF814FB000042
:1024B000AD2D0008140000200907090E002804DBD8
:1024C00000F1E02080F80014704700F00F0000F1E8
:1024D000E02080F8141D704702E008C8121F08C1F0
:1024E000002AFAD170477047002001E001C1121F95
:1024F000002AFBD1704700002DE9FF5F82B0002168
:10250000DDE90430020DDDF840B0034318D044F695
:102510001050A2F2FF3242431514119801281FD027
:10252000A5EB0B00401C5FEA000A4FF000064E4F7F
:10253000DFF83891B046504615D5CAF1000413E0D3
:10254000119801244AA3012801D16FEA0B010298D6
:10255000119AC0E90031C0E9024206B0BDE8F09F1F
:10256000CBF10000DFE704460021404A491842EB66
:102570000450CDE9001012E0E00707D032463B4698
:1025800040464946FDF7C0FF8046894632463B46F5
:1025900010461946FDF7B8FF06460F466410002C9A
:1025A000EAD1DDE90401DDE90023BAF1000F06DA22
:1025B000FDF7AAFF42464B46FDF7A6FF05E0FEF7F2
:1025C00015F842464B46FEF711F804460E46002227
:1025D000284BFEF793F803D84FF0FF30014607E091
:1025E0000022254B20463146FDF7E7FEFEF76DF849
:1025F000102409E0002C0ADB0A220023FDF740FE2C
:10260000039B30321A55641E50EA0102F2D1641C59
:10261000039AC4F111031444119A012A03D0012230
:1026200008430DD10AE0084304D000204FF0110BFD
:10263000119072E7A3EB0B056D1E0DE05B4504DD09
:102640004FF0000205F1010504E003DA4FF000024B
:10265000A5F10105002AECD002981199C0E90231D8
:10266000C0E9004579E70000000014400000F03F99
:10267000300000000000F0430000E03F2DE9FF4F74
:1026800095B09B468946064600250FE2252877D15E
:1026900000242746F84A0121059400E0044316F877
:1026A000013F203B01FA03F01042F7D130782A288D
:1026B00011D06FF02F033078A0F13002092A16D81C
:1026C000059A44F0020402EB820203EB420210443A
:1026D000761C0590EFE759F8042B0592002A03DADF
:1026E000504244F40054059044F00204761C3078C3
:1026F0002E2816D116F8010F44F004042A280DD014
:102700006FF02F023078A0F13003092B09D807EBC6
:10271000870302EB4303C718761CF3E759F8047BE1
:10272000761C30786C280FD006DC4C2817D068282F
:102730000DD06A2814D104E0742810D07A280FD163
:102740000DE044F400140AE044F4801401E044F481
:1027500040147278824202D104F58014761C761CF3
:10276000307866280BD013DC582877D009DC002895
:1027700075D04528F6D04628F4D047281AD19DE1D7
:1027800018E0632835D0642879D0652812D195E106
:10279000702873D008DC6728F1D069286FD06E28C4
:1027A0000DD06F2806D1B5E073282CD0752875D0D0
:1027B000782874D05A46179990476D1C75E1C4F378
:1027C0000250022809D003280DD0D9F8001004289F
:1027D0000DD00D6009F1040967E1D9F80010EA177E
:1027E000C1E90052F6E7D9F800100D80F2E70D704C
:1027F000F0E719F8041B8DF8001000208DF8010097
:10280000EA46012003E059F804AB4FF0FF306107BE
:102810004FF0000102D40DE008F101018846B942F1
:102820000FDA8045F8DB1AF808100029F4D108E027
:1028300008F1010188468142FADB1AF808100029E4
:10284000F6D105985B46A0EB080721463846179A53
:1028500000F094FA284400EB080507E04DE029E178
:102860000DE01AF8010B5A4617999047B8F1010884
:10287000F7D25B4621463846179A13E142E00A2216
:102880000092C4F302524FF0000A022A08D059F80D
:1028900004CB032A4FEAEC710AD00DE029E02AE0CC
:1028A00009F1070121F00702F2E802C1914609E0AF
:1028B0000FFA8CFC4FEAEC71042A03D14FFA8CFC1E
:1028C0004FEAEC71002907DA0A460021DCF1000C1E
:1028D00061EB02012D2202E0220504D52B228DF8A6
:1028E0000420012203E0E20701D02022F7E790460E
:1028F00059E00A2102E010220DE010214FF0000AF9
:1029000000910BE010224FF0000A44F00404082765
:10291000009203E008224FF0000A0092C4F3025232
:10292000022A05D059F804CB0021032A08D009E077
:1029300009F1070121F00702F2E802C1914605E022
:102940001FFA8CFC042A01D10CF0FF0C4FF0000898
:10295000220728D5702806D0009B83F0100353EA85
:102960000A0305D00EE040228DF80420012208E081
:102970005CEA010206D030228DF804208DF80500B3
:1029800002229046009B83F0080353EA0A030AD10F
:102990005CEA010201D1620705D530228DF80420DE
:1029A0004FF001087F1E582804D034A003900EA8D1
:1029B00002900DE036A0F9E753466046009AFDF715
:1029C0005FFC84460398825C0298401E029002706D
:1029D0005CEA0100F0D1029806A9081A00F1200A69
:1029E000600702D524F4803400E00127574502DD5A
:1029F000A7EB0A0000E0002000EB0A010090059818
:102A00004144401A0590E00306D45B462146179ADC
:102A1000059800F0B3F90544002706E001A85A46DE
:102A2000C05D179990476D1C7F1C4745F6DBE0039E
:102A30000CD55B462146179A059800F09FF905448E
:102A400004E030205A46179990476D1C0099481EA3
:102A500000900029F5DC08E0029802995A460078B7
:102A6000491C0291179990476D1CBAF10001AAF117
:102A7000010AF1DC65E10000092801003031323340
:102A800034353637383961626364656600000000AA
:102A90003031323334353637383941424344454694
:102AA0000000000000F058F90544761C307800283A
:102AB0007FF4ECAD19B02846BDE8F08F620700D472
:102AC000062709F1070222F0070CFCE80223E14681
:102AD00003F000485FEA080C02D00FF2702C0DE002
:102AE0005FEA045C02D50FF2682C07E05FEAC47C61
:102AF00002D00FF2602C01E0AFF2700C4FF0FF3803
:102B000023F00043CDF850C065280CD006DC4528E2
:102B100009D046281DD047283DD13DE0662818D071
:102B200067287ED138E00021112F01DB112000E061
:102B3000781CCDE9000106A90EA8FFF7DDFCDDE950
:102B40000F010E9A03910021009207F1010A0491EE
:102B50004DE04FF000400097CDE9011006A90EA806
:102B6000FFF7CAFCDDE90F0203920E9B11990022C8
:102B7000DDF80CA00093049211B9791C00EB010A56
:102B8000B7EB0A0004D4C0F1FF3007F1010A04904A
:102B9000AAEB0700019044E0012F00DA0127002191
:102BA000112F01DD112000E03846CDE9000106A912
:102BB0000EA8FFF7A1FCDDE90F010E9A0391002199
:102BC00004910092BA4621070CD40399514500DACA
:102BD0008A46BAF1010F05DD009AAAF10101515CA4
:102BE000302908D0B84202DA10F1040F06DA0121C8
:102BF000CDE9011015E0AAF10101E9E7002805DCA3
:102C0000049901440491AAEB000102E0411C5145E2
:102C100000DD8A460499401A401C01904FF00040A4
:102C20000290200704D40198504501DBCDF80480C0
:102C300000208DF84F0002980DF14F07B0F1004FC2
:102C400025D02B200E9002984FF0020800280CDAB5
:102C5000404202902D200E9007E00A210298FDF7D5
:102C600077FB3031029007F8011DB8F10001A8F19F
:102C70000108F2DC02980028EFD1791E0E98087046
:102C8000307800F0200040F0450007F8020D12A84F
:102C9000C01B00F107081498007800B1012000EB78
:102CA0000A01019801EBE07105984144401A401E69
:102CB0000590E00306D45B462146179A059800F07C
:102CC0005DF805441498007818B15A461799904752
:102CD0006D1CE00324D55B462146179A059800F049
:102CE0004DF805441CE00498002807DBDDE90301EA
:102CF000884203DD0098405C179901E01799302065
:102D00005A469047049805F10105401C049001982B
:102D1000401E019004D12E205A46179990476D1CF1
:102D2000BAF10001AAF1010ADDDC05E017F8010B98
:102D30005A46179990476D1CB8F10001A8F1010897
:102D4000F4DC5B462146179A0598ABE62D0000009F
:102D50002B000000200000002DE9F0410446002572
:102D60001E461746880404D405E039462020B047A3
:102D70006D1C641EF9D52846BDE8F0812DE9F041AF
:102D8000044600251E469046C80301D5302700E0C2
:102D90002027880404D505E041463846B0476D1C1D
:102DA000641EF9D52846BDE8F081000003490A6891
:102DB0005206FCD5C2B24A607047000000100140C4
:102DC00098B032A140F22132D1E90001CDE91501DC
:102DD0000020059040F2231106900E911490CDE949
:102DE0000F1008210792CDE91101CDE90820CDE9A6
:102DF0000A01FEF78BF9FFF71BF9FEF7EBFFFFF770
:102E000021F8FEF793FF2348FEF79CFEFEF78EFFA6
:102E10002148FDF7EFFF2048FEF730F8FEF7AAFF44
:102E200000F067F84FF47A74651014AB15AA0EA978
:102E30001948FDF77AFD05AB07AA00211648FDF7F2
:102E4000D9FD2346082205A91248FEF70FFF13A05B
:102E5000FFF722FB9DF818000DF1040C9DF81B30C4
:102E60009DF81A209DF819108CE80F009DF81700A6
:102E700000909DF816309DF815209DF8141008A0BC
:102E8000FFF70AFB2846FEF73FF8CEE73836343224
:102E900031333537CC030020DC0200200D0A00005E
:102EA00043414E205278646174613A202530325893
:102EB0002C253032582C253032582C253032582CC5
:102EC000253032582C253032582C253032582C25BC
:102ED0003032580D0A00000001460020842900D03D
:102EE000C81C704710B500B9012000F0B7FB0020E6
:102EF00010BD10B500F0FEFB002010BD7FB50D46E3
:102F000004464169B0F9080081B1A16971B1FFF7C8
:102F1000E3FFD4E905128DE80700D4E900102B4641
:102F2000226900F0E8FE039004B070BDFFF7D4FF03
:102F300003A9CDE90001208A2B4682B2D4E9001012
:102F400000F0ACFE012801D00020EDE70398EBE78C
:102F50002DE9F041184C0F46054666692068001DB2
:102F600000F0B8FA38B9206890F82C100120884099
:102F7000A1698143A161681C07D137B12168BDE80F
:102F8000F0410E48091D00F0E9BA20683544B54209
:102F90004560216805D2A068BDE8F041091D00F038
:102FA000C5BA6068091D00F0C1FA206B854200D2E5
:102FB0002563BDE8F08100002800002054050020B2
:102FC0002DE9F041054600F0D5FA2E4C2069401C51
:102FD000206120682C4F10B1E06940B32DE02560DE
:102FE0002069012829D1002606EB860007EB800026
:102FF00000F08EFA761C072EF6D323488C3000F0B2
:1030000087FA2148A03000F083FA1F48B43000F05E
:103010007FFA1D48C83000F07BFA1B48DC3000F016
:1030200077FA19488C3060601430A06005E02068A1
:10303000E96AC06A884200D82560E06A401CE06204
:10304000E96A0120A26988401043A06101EB810078
:1030500007EB8000291D00F081FA00F0ABFAE0696F
:1030600000280CD02068E96AC06A884207D2074964
:103070004FF080500860BFF34F8FBFF36F8FBDE8F4
:10308000F0810000280000207804002004ED00E01A
:1030900030B4026C0B46002A0BD0C1681144C160E9
:1030A0008468A14201D30168C16030BC1846FDF7B5
:1030B00018B930BC70472DE9F041856B17460446BE
:1030C0000026026C82B1C7B1E068FDF70AF9E16839
:1030D000206C091AE1602268914202D2A168081AA4
:1030E000E060022F16D017E02068A8B9A06800F0B1
:1030F0009FFE06460020A0600EE06068FDF7F1F834
:10310000216C606808446060A168884204D320682C
:10311000606001E005B16D1E6D1CA5633046BDE821
:10312000F08110B5044690F8510058B101280CD038
:1031300002280FD0502080F31188BFF34F8FBFF3C8
:103140006F8FFEE7206B00F049FA2046BDE8104083
:1031500000F044BA10BD000010484FF4705142070F
:1031600006D0C01D0D4920F00700411AC1F570516D
:103170000B4A00230144C2E900030839103A21F048
:10318000070111604B600B600B1AC0E900139360DC
:103190004FF000405360D060704700006805002089
:1031A00074000020144E154CA6F1C8074FF080584B
:1031B000DFF84C9012E000BF00F0DCF9F068C56861
:1031C000281D00F087F92069401E2061E068401E3C
:1031D000E06000F0EFF92846FFF7A3FFE068002861
:1031E000EAD138680128F9D9C9F80080BFF34F8FB8
:1031F000BFF36F8FF2E70000400500202800002099
:1032000004ED00E00346009829B10260C0E90F31E7
:10321000012100F079BB0060F8E72DE9F0479A46FC
:10322000DDE9098481466FF00303206B03EB820222
:103230001044089E20F00707780707D0502080F33D
:103240001188BFF34F8FBFF36F8FFEE7002561B189
:10325000002023180A5C83F834200A5C12B1401C59
:103260001028F6D384F8435001E084F83450072E38
:1032700000D30626E662C4E91165201D00F053F96B
:1032800004F1180000F04FF92461C6F107006462F0
:10329000A061E56484F8505052464946384600F033
:1032A00003F92060B8F1000F01D0C8F80040BDE874
:1032B000F087000030B5114900E011460A688242EB
:1032C000FBD34B685C18844203D1406818444860C3
:1032D000084643681C18944209D1084C103C2468E5
:1032E000A24209D052681A4442600A681268026019
:1032F000814200D0086030BD0460F9E7740000200E
:1033000010B5044600F036F9A06B28B15FF0000458
:1033100000F050F9204610BD0124F9E70648416845
:10332000096829B14168C968C9684968016370477B
:103330004FF0FF31FAE700002800002008484068FD
:10334000401C4FF0500080F3118804D0BFF34F8F22
:10335000BFF36F8FFEE7BFF34F8FBFF36F8FFEE7B3
:103360007C0000202DE9F041044600F003F994F9B7
:10337000455004F1240609E0606A48B1304600F087
:10338000A3FD08B100F098F96D1E6DB2002DF3DCBD
:103390004FF0FF3684F8456000F00CF900F0EAF8D1
:1033A00094F9445004F1100709E0206948B1384607
:1033B00000F08AFD08B100F07FF96D1E6DB2002D9E
:1033C000F3DC84F84460BDE8F04100F0F3B800009D
:1033D0002DE9F0410546002700F0C2F9314E306872
:1033E00008B9FFF7B9FEF06805424BD1C5B30835FF
:1033F00068070ED005F00700C0F108000544680713
:1034000007D0502080F31188BFF34F8FBFF36F8F29
:10341000FEE72DB37068854234D82248103001464B
:103420000C6801E020460C466168A94202D221687E
:103430000029F7D131688C4224D0076821680160E7
:1034400060680837411B10290FD96019420708D05E
:10345000502080F31188BFF34F8FBFF36F8FFEE7CB
:1034600010E041606560FFF725FF61687068401AF1
:103470007060B268904200D2B060F06801430020F2
:10348000C4E9000100F05AFD780707D0502080F30E
:103490001188BFF34F8FBFF36F8FFEE73846BDE84B
:1034A000F08100006400002010B5031F4FF080740D
:1034B0001C601B1F21F001011960191F044B0B60D8
:1034C00014390A60091F6FF0020244380A6010BD07
:1034D0003D330008D0E9013201699A60D0E9012347
:1034E0005A604A68824201D182684A6000220261C1
:1034F0000868401E0860086870470000034B0360BE
:1035000003F154000860802010607047880000209C
:1035100000F108014FF0FF32C0E90112C160016102
:1035200000210160704700210161704730B50B68D0
:103530005A1C02D000F1080202E0026904E02246AF
:10354000546825689D42FAD953684B6099608A6037
:10355000516008610168491C016030BD42684A60E1
:1035600093688B6093685960916008610168491C99
:1035700001607047502080F31188BFF34F8FBFF375
:103580006F8F0A494868401C486001280CD10848E0
:10359000006810F0FF0F07D0502080F31188BFF3B0
:1035A0004F8FBFF36F8FFEE7704700007C00002055
:1035B00004ED00E00849486828B1401E486001D188
:1035C00080F311887047502080F31188BFF34F8F2C
:1035D000BFF36F8FFEE700007C00002070B500286D
:1035E00027D0144DA0F108046168E868014207D1B2
:1035F000502080F31188BFF34F8FBFF36F8FFEE72A
:1036000022683AB1502080F31188BFF34F8FBFF387
:103610006F8FFEE78143616000F0A2F8606869681F
:10362000084468602046FFF745FEBDE8704000F0A2
:1036300085BC70BD640000204FF0E02000210161D6
:10364000816105494FF47A720968B1FBF2F1491EB4
:1036500041610721016170472400002010B502007C
:1036600014D00F48806B38B1502080F31188BFF31D
:103670004F8FBFF36F8FFEE700F072F80021104606
:10368000FFF766FC00F05AFC002807D105494FF00F
:1036900080500860BFF34F8FBFF36F8F10BD0000E5
:1036A0002800002004ED00E002498A6A02604969AE
:1036B000416070472800002001490120486270479E
:1036C0002800002010B50C4650B10949096818318E
:1036D000FFF72CFF2046BDE810400121FFF738BC62
:1036E000502080F31188BFF34F8FBFF36F8FFEE739
:1036F0002800002010B586B00024039405AA04A970
:1037000003A80494FFF7FAFEDDE903010094CDE974
:10371000011000230EA11048059A00F0ECFA0F49A1
:103720000028486311D0502080F31188BFF34F8FD9
:10373000BFF36F8F4FF0FF3008630120C8614C6109
:1037400006B0BDE8104000F041B806B010BD000062
:1037500049444C4500000000A53100082800002025
:103760000248816B491C81637047000028000020DB
:103770001448816B11B101214162704700214162FF
:103780008169B1FA81F1C1F11F0101EB81020E499A
:1037900051F822306BB101EB820101F108034A6854
:1037A00052684A609A4201D152684A60D168016009
:1037B0007047502080F31188BFF34F8FBFF36F8F96
:1037C000FEE7000028000020780400201CB53748E0
:1037D0000168374A914207D1502080F31188BFF326
:1037E0004F8FBFF36F8FFEE700683149491E884253
:1037F00007D1502080F31188BFF34F8FBFF36F8F35
:10380000FEE72C4908780190FF20087008788DF8B1
:1038100000009DF800009DF8002000F0F0009042AC
:1038200007D0502080F31188BFF34F8FBFF36F8F05
:10383000FEE79DF80000204B00F0500018700720B4
:10384000986005E09DF8002052008DF80020401E91
:103850009DF800201206F5D49860032807D0502068
:1038600080F31188BFF34F8FBFF36F8FFEE74FF4E4
:1038700040709860019808700C482030016841F44D
:1038800070010160016841F070410160FFF7D4FEF2
:1038900000205860FCF7A6FC0848016841F0404150
:1038A0000160FCF78BFC00201CBD000000ED00E077
:1038B00071C20F4100E400E07C00002034EF00E022
:1038C000F8B517460E46050014D0DEB105FB06F02C
:1038D0004830FFF77DFD04000AD0002084F8460040
:1038E00004F148023B46314628460094FFF78AFC23
:1038F0002046F8BD502080F31188BFF34F8FBFF3EF
:103900006F8FFEE70020E3E770B50D46040025D079
:10391000FFF730FED4E90F20216802FB0011A160FF
:103920000021A163216861600A46D4E90F01401EAD
:1039300000FB0121E16021464FF0FF3001F8440F08
:10394000487004F110008DB1FFF7E2FD04F124008E
:10395000FFF7DEFDFFF72EFE012070BD502080F343
:103960001188BFF34F8FBFF36F8FFEE721690029E6
:10397000F0D000F0A9FA0028ECD004494FF08050B4
:103980000860BFF34F8FBFF36F8FE3E704ED00E0F4
:103990002DE9FF4782B01D468A464FF0000804001B
:1039A00003D0BAF1000F08D011E0502080F3118845
:1039B000BFF34F8FBFF36F8FFEE7206C38B15020FD
:1039C00080F31188BFF34F8FBFF36F8FFEE7022D97
:1039D0000AD1E06B012807D0502080F31188BFF393
:1039E0004F8FBFF36F8FFEE700F0B0F93F4F4FF0FE
:1039F00000094FF0805648B9049838B1502080F340
:103A00001188BFF34F8FBFF36F8FFEE7FFF7B2FD53
:103A1000A06BE16B884207D3022D05D00498D0B18A
:103A2000B8F1000F1AD01EE02A4651462046FFF793
:103A300042FB616A19B104F1240000F045FA20B19B
:103A40003E60BFF34F8FBFF36F8FFFF7B3FD0120D1
:103A500006B0BDE8F087FFF7ADFD22E06846FFF74E
:103A600023FE4FF00108FFF7A5FDFFF779FEFFF7F2
:103A700081FD94F94400401C01D184F8449094F9EC
:103A80004500401C01D184F84590FFF793FD04A93F
:103A9000684600F0C9F830B12046FFF763FC00F03B
:103AA0004DFA0020D4E7FFF765FDA06BE16B88427B
:103AB00013D1FFF77FFD04F110000499FFF702FE18
:103AC0002046FFF74FFC00F039FA00289ED13E60F7
:103AD000BFF34F8FBFF36F8F98E7FFF76BFD204663
:103AE000FFF740FC00F02AFA90E7000004ED00E048
:103AF0002DE9F747002683B08A46040003D0BAF1C7
:103B0000000F08D011E0502080F31188BFF34F8FD1
:103B1000BFF36F8FFEE7206C38B1502080F311881F
:103B2000BFF34F8FBFF36F8FFEE700F00FF9DFF8A1
:103B3000F4804FF000094FF0805748B9059838B12C
:103B4000502080F31188BFF34F8FBFF36F8FFEE7D4
:103B5000FFF710FDA56BC5B151462046FFF798FA57
:103B60006D1EA563206950B104F1100000F0ACF99E
:103B700028B1C8F80070BFF34F8FBFF36F8FFFF706
:103B800019FD012006B0BDE8F087059808B11EB107
:103B900006E0FFF70FFD27E06846FFF785FD0126E9
:103BA000FFF708FDFFF7DCFDFFF7E4FC94F94400A4
:103BB000401C01D184F8449094F94500401C01D187
:103BC00084F84590FFF7F6FC05A9684600F02CF84C
:103BD000002820460AD0FFF7C5FB00F0AFF92046C9
:103BE000FFF78EFB0028B3D00020CBE7FFF788FB60
:103BF00090B104F124000599FFF764FD2046FFF71A
:103C0000B1FB00F09BF90028A2D1C8F80070BFF307
:103C10004F8FBFF36F8F9BE72046FFF7A3FB00F0AA
:103C20008DF995E704ED00E02DE9F0410C46050023
:103C300011D0C4B1FFF79EFC174B5A696E6820681B
:103C4000911B471C17D02F689B6A9F4219D0964240
:103C500017D8012410E0502080F31188BFF34F8F54
:103C6000BFF36F8FFEE7502080F31188BFF34F8FB3
:103C7000BFF36F8FFEE70024FFF79CFC2046BDE8F2
:103C8000F081884205D9401A20602846FFF70CFDD4
:103C9000F1E700202060DCE7280000202DE9FF5F2D
:103CA0008346DDE90E87994616468A469000FFF75F
:103CB0008FFB05001CD05420FFF78AFB040014D0B2
:103CC0000020256384F85100CDE90240CDE900874A
:103CD0004B46324651465846FFF79FFA2046FFF7BB
:103CE0006FF9012004B0BDE8F09F2846FFF776FC8D
:103CF0004FF0FF30F6E7F0B585B0DDE90B640A9DC3
:103D0000A6B1DCB1542700972663022684F85160DF
:103D1000002604AFCDE90246CDE90057FFF77DFA52
:103D20002046FFF74DF9049805B0F0BD502080F310
:103D30001188BFF34F8FBFF36F8FFEE7502080F3E2
:103D40001188BFF34F8FBFF36F8FFEE70548C1693E
:103D500019B1806B18B10020704701207047022014
:103D600070470000280000202DE9F0412E4C00276C
:103D7000A06B40B1206A401C2062606A00B101273C
:103D80003846BDE8F0816669761C666113D16068CB
:103D9000006838B1502080F31188BFF34F8FBFF314
:103DA0006F8FFEE76068A1686160A060A06A401C38
:103DB000A062FFF7B3FA206BDFF87080864209D368
:103DC0006068006880B16068C068C56868688642DD
:103DD0000DD220632068C06A00EB800158F82100F2
:103DE0000128CAD90127C8E74FF0FF30F1E7281DA5
:103DF000FFF770FBA86A18B105F11800FFF76AFB1E
:103E0000E86A0121A26981401143A16100EB8001B0
:103E100008EB8100291DFFF7A1FBE86A2168C96A48
:103E20008842CDD30127CBE728000020780400206A
:103E300070B504004FF0000140D0214D2868844245
:103E400007D0502080F31188BFF34F8FBFF36F8FDF
:103E5000FEE7A06C38B1401EA064636CE26A9A422F
:103E60002CD040B12AE0502080F31188BFF34F8F4F
:103E7000BFF36F8FFEE7201DFFF72CFB114A0121D6
:103E800050B9E06A00EB800352F8233023B9AB69E4
:103E900001FA00F08343AB61606CE062C0F107009F
:103EA000A061E06AAB6981401943A96100EB800021
:103EB00002EB8000211DFFF751FB0121084670BD78
:103EC00028000020780400202DE9F041C068C46873
:103ED000ACB104F118000746FFF7FCFA154DA86BCA
:103EE0000126A0B139461448FFF738FBE06A29687B
:103EF000C96A88421CD901206E62BDE8F081502059
:103F000080F31188BFF34F8FBFF36F8FFEE7201D43
:103F1000FFF7E0FAE16AAA6906FA01F01043A86126
:103F200001EB81000449B43901EB8000211DDBE77E
:103F30000020E2E7280000202C0500202DE9F047B2
:103F40002C4D00242746A86B38B1FFF713FBA86B54
:103F5000401EA863A86B40B146E0502080F3118852
:103F6000BFF34F8FBFF36F8FFEE72969224E012009
:103F7000D1B3A6F1B40980463068E8B1F068C468EE
:103F800004F11800FFF7A6FA201DFFF7A3FAE06A74
:103F9000AA6908FA00F11143A96100EB800109EB5D
:103FA0008100211DFFF7DAFAE06A2968C96A8842B0
:103FB000E2D3C5F82480DFE70CB1FFF7AFF92C6A34
:103FC00044B14646FFF7D0FE00B16E62641EF9D1DF
:103FD00000202862686A38B108490127380708605C
:103FE000BFF34F8FBFF36F8FFFF7E4FA3846BDE89A
:103FF000F0870000280000202C05002004ED00E0E0
:1040000084400008C11F00080000000000000000FC
:104010008000000000000000000000006C4000086C
:10402000D9080008FDFF000000000000800000002B
:104030000000000000000000784000083D08000873
:10404000FDFF0000000000008000000000000000F4
:104050000000000000000000000000000102030456
:104060000607080900000000010203046D7954618D
:10407000736B3032000000006D795461736B303324
:104080000000000064656661756C745461736B00B8
:10409000B04000080000002088000000D82400087C
:1040A0003841000888000020E0440000E8240008AF
:1040B0000000000000000000000000000000000000
:1040C00000000000000000000100000010000000DF
:1040D000000000000024F4000000000000000000C8
:1040E00000000000000000000000000000000000D0
:1040F00000000000000000000000000000000000C0
:1041000000000000000000000000000000000000AF
:10411000000000000000000000000000000000009F
:10412000000000000000000000000000000000008F
:08413000AAAAAAAA00000000DF
:040000050800018965
:00000001FF
